:100000000C945D000C9485000C9485000C94850084
:100010000C9485000C9485000C9485000C9485004C
:100020000C9485000C9485000C9485000C9485003C
:100030000C9485000C9485000C9485000C9485002C
:100040000C946D060C9485000C943B060C941506DC
:100050000C9485000C9485000C9485000C9485000C
:100060000C94B7060C9485000000000024002700C3
:100070002A0000000000250028002B0004040404CE
:100080000404040402020202020203030303030342
:10009000010204081020408001020408102001021F
:1000A00004081020000000080002010000030407FB
:1000B0000000000000000000330811241FBECFEF35
:1000C000D8E0DEBFCDBF12E0A0E0B1E0E0E9FBE1A7
:1000D00002C005900D92A83CB107D9F724E0A8EC26
:1000E000B2E001C01D92AE3CB207E1F710E0CDE5F1
:1000F000D0E004C02197FE010E94C00DCC35D1078D
:10010000C9F70E9492080C94C60D0C940000982F19
:100110002091BB0381E0213208F043C08091970316
:100120008111FCCF8091BA0332E030939703909312
:1001300096039FEF9093950310929403209393035B
:10014000AAE9B3E0E3E7F3E090E0291331C01092AD
:10015000720390917203880F892B809372038091B0
:100160007103813049F5109271038091720380937D
:10017000BB008091BC0083FDF8CF85EC8093BC0070
:10018000809197038230E1F3809195038F3FB1F026
:10019000809195038032A1F080919503803391F096
:1001A00084E0109299031092BB0310929803089573
:1001B0003D9131939F5FC9CF85EEE0CF80E0F1CFD5
:1001C00082E0EFCF83E0EDCF90E0FC01EC55FF4FF4
:1001D0002491FC01E057FF4F3491FC01E458FF4F9C
:1001E000E491EE23B1F0222339F02330E9F090F4CA
:1001F000213001F1223011F1F0E0EE0FFF1FEE5837
:10020000FF4FA591B4918FB7F894EC913E2B3C939E
:100210008FBF08952730A9F02830C9F0243061F746
:10022000809180008F7D03C0809180008F778093C4
:100230008000E2CF84B58F7784BDDECF84B58F7D1B
:10024000FBCF8091B0008F778093B000D5CF8091A5
:10025000B0008F7DF9CF40E252E0DC01D09630E073
:1002600020E0FC01E20FF31F6081662331F0FA0108
:10027000E20FF31F7081671360832F5F3F4F2830B9
:10028000310579F7485F5F4F08968A179B0739F762
:100290000895AF92BF92CF92DF92EF92FF920F93A9
:1002A0001F93CF93DF936C017B018B01040F151F0C
:1002B000EB015E01AE18BF08C017D10759F0699174
:1002C000D601ED91FC910190F081E02DC6010995D8
:1002D000892B79F7C501DF91CF911F910F91FF9085
:1002E000EF90DF90CF90BF90AF900895089508955C
:1002F000FC01538D448D252F30E0842F90E0821B2C
:10030000930B541710F0CF96089501970895FC01B0
:10031000918D828D981761F0A28DAE0FBF2FB11D08
:100320005D968C91928D9F5F9F73928F90E0089560
:100330008FEF9FEF0895FC01918D828D981731F01A
:10034000828DE80FF11D858D90E008958FEF9FEF6E
:100350000895FC01918D228D892F90E0805C9F4F44
:10036000821B91098F73992708958CEB93E00E946B
:10037000A90121E0892B09F420E0822F089580E073
:1003800090E0892B29F00E94B50181110C940000A6
:100390000895FC01A48DA80FB92FB11DA35ABF4F1A
:1003A0002C91848D90E001968F739927848FA68974
:1003B000B7892C93A089B1898C91837080648C93C8
:1003C000938D848D981306C00288F389E02D808177
:1003D0008F7D80830895EF92FF920F931F93CF93A9
:1003E000DF93EC0181E0888F9B8D8C8D98131AC070
:1003F000E889F989808185FF15C09FB7F894EE8957
:10040000FF896083E889F9898081837080648083B3
:100410009FBF81E090E0DF91CF911F910F91FF90FE
:10042000EF900895F62E0B8D10E00F5F1F4F0F73A6
:100430001127E02E8C8D8E110CC00FB607FCFACF61
:10044000E889F989808185FFF5CFCE010E94C90135
:10045000F1CFEB8DEC0FFD2FF11DE35AFF4FF08232
:100460009FB7F8940B8FEA89FB8980818062CFCF98
:10047000CF93DF93EC01888D8823B9F0AA89BB89DB
:10048000E889F9898C9185FD03C0808186FD0DC0C6
:100490000FB607FCF7CF8C9185FFF2CF808185FFE7
:1004A000EDCFCE010E94C901E9CFDF91CF91089530
:1004B0008E3008F08E508770806480937C0080912D
:1004C0007A00806480937A0080917A0086FDFCCF68
:1004D000809178009091790008953FB7F8948091C9
:1004E0002C0390912D03A0912E03B0912F0326B5DC
:1004F000A89B05C02F3F19F00196A11DB11D3FBF5C
:10050000BA2FA92F982F8827BC01CD01620F711D2A
:10051000811D911D42E0660F771F881F991F4A9524
:10052000D1F708958F929F92AF92BF92CF92DF92B0
:10053000EF92FF924B015C010E946D026B017C0106
:100540000E946D026C197D098E099F09683E7340F7
:1005500081059105A8F321E0821A9108A108B1084C
:1005600088EEC80E83E0D81EE11CF11C81149104B2
:10057000A104B10429F7FF90EF90DF90CF90BF90D6
:10058000AF909F908F9008951F93CF93DF93EC01CE
:10059000142F89819A81288131E030939803209328
:1005A000BA03109299031092BB03DC01ED91FC9108
:1005B0000190F081E02D099589819A81DC01ED910E
:1005C000FC910190F081E02D612F099581E0DF9190
:1005D000CF911F910C948700DC01ED91FC9101906B
:1005E000F081E02D09940F931F93CF93DF93EC01DB
:1005F0008A0189819A81288131E030939803209380
:10060000BA03109299031092BB0324E0629FB001D9
:1006100011246A5F7F4FDC01ED91FC910190F08124
:10062000E02D099570E060E089819A810E94EC02DA
:1006300070E060E089819A810E94EC02B8018981B2
:100640009A810E94EC02612F70E089819A810E9458
:10065000EC0281E0DF91CF911F910F910C94870004
:1006600085ED8093BC008091BC0084FDFCCF10928E
:10067000970308952091E802260F3327331F213274
:100680003105ECF420919703FC0190E080E02430E8
:1006900069F082E00895A091E8022191AC014853ED
:1006A0005D4FA40FB52FB11D2C930196861798F3BB
:1006B0008091E802680F6093E80280E0089581E08D
:1006C00008950895E091350380913403E81730F4DC
:1006D000F0E0E55FFC4F808190E008958FEF9FEFA1
:1006E000089590913503809134032FEF3FEF9817D1
:1006F00048F4E92FF0E0E55FFC4F208130E09F5F98
:1007000090933503C9010895809134039091350386
:10071000891B990B0895CF92DF92EF92FF920F936E
:100720001F93CF93DF937C01CB018A012091980323
:10073000222389F0EB016B01C40ED51ECC15DD051B
:1007400069F06991D701ED91FC910190F081E02D64
:10075000C7010995F3CF642F0E943A03C801DF91C6
:10076000CF911F910F91FF90EF90DF90CF90089560
:10077000CF93DF931F92CDB7DEB7698320919803A3
:100780002223F9F02091BB03203258F021E030E021
:10079000FC013383228390E080E00F90DF91CF91C2
:1007A000089580919903E82FF0E0E656FC4F998177
:1007B00090838F5F809399038093BB0381E090E0E7
:1007C000ECCF61E0CE0101960E943A03F7CF90E0B2
:1007D00080E008950F931F93CF93DF93EC018B8DEF
:1007E00081111FC01A8A198A88810E945802988B29
:1007F0008F87883E93408CF481E08B8F2FB7F894DD
:100800008091360390913703A0913803B09139035A
:100810002FBF8D839E83AF83B8878B8D882309F488
:1008200098C02FB7F8948091360390913703A09128
:100830003803B09139032FBF89879A87AB87BC876C
:100840004D815E816F817885841B950BA60BB70B5C
:1008500049815A816B817C8184179507A607B70768
:1008600008F474C088810E9458029A8B898B2F8566
:1008700038898217930711F49C8B8B8B8B899C8909
:100880009C012259310927323105E0F41B8E01E029
:1008900010E01E8B0D8B8D859E858017910709F0CA
:1008A0005BC08F89988D0817190709F455C09A8F76
:1008B000898F188F0F8B898D9A8DDF91CF911F9122
:1008C0000F9108959C01255031402D31310520F4C0
:1008D0001B8E02E010E0DDCF9C01255A31402D3106
:1008E000310520F41B8E03E010E0D3CF9C012A5485
:1008F00032402D31310520F41B8E04E010E0C9CFC9
:100900009C012C5C32402D31310520F41B8E05E01A
:1009100010E0BFCF9C01255333402D31310520F429
:100920001B8E06E010E0B5CF9C01245933402D31D9
:10093000310520F41B8E07E010E0ABCF815C9340C3
:100940001B8E879718F408E010E0A3CF8B8D8111E0
:10095000A0CF10E000E09DCF1A8E198EAACFFC0127
:1009600001900020E9F73197AF01481B590BBC01FA
:100970008CEB93E00C9449018F929F92AF92BF92BF
:100980000F931F93CF93DF93CDB7DEB7A1970FB629
:10099000F894DEBF0FBECDBF19A2423008F44AE082
:1009A0008E010F5D1F4F842E912CB12CA12CA5011F
:1009B00094010E949E0DE62FB901CA01EA30F4F4B9
:1009C000E05DD801EE938D01232B242B252B79F7A5
:1009D00090E080E0109719F0CD010E94AF04A1963D
:1009E0000FB6F894DEBF0FBECDBFDF91CF911F9140
:1009F0000F91BF90AF909F908F900895E95CE1CFE9
:100A0000CF93DF930E94AF04EC018AE792E00E944B
:100A1000AF048C0F9D1FDF91CF9108958F929F920D
:100A2000AF92BF92CF92DF92EF92FF921F93CF933C
:100A3000DF93EC016A017B0120E030E040E85FE3F6
:100A4000CB01B6010E94CF0B87FDDCC020E030EC6B
:100A50004AE555E4C701B6010E94270D18163CF47B
:100A6000C12C30ECD32E3AE5E32E35E4F32E6B8126
:100A70007C818D819E810E94750C4B015C0120E080
:100A800030E040E855E4C701B6010E942C0D9B01FF
:100A9000AC01C501B4010E94D40B20E030E040E07D
:100AA0005FE30E94630B20E030E040E85FE30E94D8
:100AB000620B6B017C0120E030E040E450E40E94D6
:100AC000CF0B87FDA6C020E030E04FE753E4C7011D
:100AD000B6010E94270D181634F4C12CD12C9FE7C3
:100AE000E92E93E4F92EC701B6010E94460CF62EBA
:100AF00089819A81288131E0309398032093BA0349
:100B0000109299031092BB03DC01ED91FC910190CE
:100B1000F081E02D60E0099581E00E9487008881E6
:100B2000909197039111FCCF91E09093970390934C
:100B300096032FEF20939503109294031092930342
:100B40009093720390917203880F892B80937203A4
:100B500080917103813009F062C01092710380911D
:100B600072038093BB008091BC0083FDF8CF85ECBD
:100B70008093BC00809197038130E1F380919403CE
:100B800091E0811102C090919403A3E7B3E0EBE000
:100B9000F3E080E0891345C010923503809334035D
:100BA00089819A81DC01ED91FC910284F385E02D2D
:100BB0000995182F482F4F76406160E0CE010E94C2
:100BC000C4024F2D6EEFCE010E94C402412F60E09F
:100BD000CE010E94C40265E070E080E090E00E94D7
:100BE0009202412F406A60E0CE01DF91CF911F91C8
:100BF000FF90EF90DF90CF90BF90AF909F908F903D
:100C00000C94C402C12CD12C20E8E22E2FE3F22E4A
:100C10002ECFC12CD12C80E4E82EFE2C64CF85EEA3
:100C2000A7CF2D9121938F5FB5CF1F920F920FB653
:100C30000F9211242F933F934F935F936F937F9362
:100C40008F939F93AF93BF93EF93FF938CEB93E0BE
:100C50000E94C901FF91EF91BF91AF919F918F9138
:100C60007F916F915F914F913F912F910F900FBEA8
:100C70000F901F9018951F920F920FB60F9211248C
:100C80002F938F939F93EF93FF93E091CC03F09179
:100C9000CD038081E091D203F091D30382FD1BC08C
:100CA00090818091D5038F5F8F732091D603821737
:100CB00041F0E091D503F0E0E454FC4F958F809330
:100CC000D503FF91EF919F918F912F910F900FBEC0
:100CD0000F901F9018958081F4CF1F920F920FB63E
:100CE0000F9211242F933F938F939F93AF93BF93B2
:100CF0008091360390913703A0913803B091390366
:100D000030912B0323E0230F2D3758F50196A11DB9
:100D1000B11D20932B038093360390933703A09348
:100D20003803B093390380912C0390912D03A09147
:100D30002E03B0912F030196A11DB11D80932C03AA
:100D400090932D03A0932E03B0932F03BF91AF91E7
:100D50009F918F913F912F910F900FBE0F901F90F9
:100D6000189526E8230F0296A11DB11DD2CF1F9220
:100D70000F920FB60F9211242F933F934F935F93CF
:100D80006F937F938F939F93AF93BF93EF93FF9353
:100D90008091B900887F803609F44AC0F0F5883226
:100DA00009F4A7C018F5803109F49BC0B8F4882372
:100DB00009F4F9C0883009F494C0FF91EF91BF9114
:100DC000AF919F918F917F916F915F914F913F91E3
:100DD0002F910F900FBE0F901F901895883109F436
:100DE00088C0803251F78093950314C0803409F491
:100DF0009DC040F48033B9F38833F9F680939503AE
:100E000085ECB0C0803509F485C0883509F496C0FA
:100E1000883499F60E943003D0CF883909F48CC009
:100E200038F5883729F050F4883611F0803729F6E4
:100E300083E08093970310920A0357C0883809F41F
:100E40007BC0803919F0803809F0B7CF80910A0350
:100E5000803208F071C0E0910A0381E08E0F809328
:100E60000A038091BB00F0E0E651FD4F80833DC056
:100E7000803B39F0E0F4803A09F479C0883A09F00F
:100E80009CCF84E0809397031092E9021092E802CD
:100E9000E0913203F091330309958091E8028111CA
:100EA0000FC081E08093E8021092C80209C0803C24
:100EB00009F4A6CF883C09F4A3CF883B09F07DCF85
:100EC000E091E90281E08E0F8093E902F0E0E853BF
:100ED000FD4F80818093BB009091E9028091E802F0
:100EE00029C0809172038093BB0085EC8093BC0085
:100EF00064CF9091940380919303981758F5E091F3
:100F0000940381E08E0F80939403F0E0ED58FC4F42
:100F10008081E9CFE091940381E08E0F8093940368
:100F20008091BB00F0E0ED58FC4F808390919403DA
:100F3000809193039817C8F285E8D8CFE091940385
:100F400081E08E0F809394038091BB00F0E0ED5818
:100F5000FC4F80838091960381115CCF81E0809368
:100F6000710384EA8093BC001092970326CF85EC2E
:100F70008093BC001092970380910A03803230F472
:100F8000E0910A03F0E0E651FD4F108260910A0300
:100F900070E0E0913003F09131038AEE92E0099520
:100FA00010920A030ACF1092950334CF0F931F9328
:100FB000CF93DF93DC010EE110E020E030E01196EA
:100FC0000D931D932D933C9314971E961C921E9285
:100FD0001D975A961C921E9259976C9370E0FB01D4
:100FE000E057FF4F849164587F4FFB0124912223E7
:100FF000D9F030E0220F331FF901E859FF4F459136
:101000005491F901EE58FF4FC591D4912FB7F89440
:10101000FA019081382F3095892F8323808388812E
:10102000E32FE823E8832FBF50961C921E921F9750
:1010300052961C921E92519754961C921E92539750
:101040001D968D919C911E9756969C938E935597C5
:1010500058969C938E9357975B961C92DF91CF91F5
:101060001F910F910895ECEBF3E01382128288EE4A
:1010700093E0A0E0B0E084839583A683B7832AE55C
:1010800032E03183208325EC30E03587248724EC5F
:1010900030E03787268720EC30E0318B208B21EC45
:1010A00030E0338B228B22EC30E0358B248B26EC26
:1010B00030E0378B268B118E128E138E148EE9E55D
:1010C000F4E01382128284839583A683B7838CE62F
:1010D00092E091838083A7ECB4E080E48C93129635
:1010E000FC93EE931197A0ECB4E081E48C931296FC
:1010F000FC93EE931197A9EBB4E082E48C931296E3
:10110000FC93EE9311976EE085E694E00E94D6077B
:101110006FE081E894E00E94D60760E18DE994E0F9
:101120000C94D607789484B5826084BD84B58160C0
:1011300084BD85B5826085BD85B5816085BD8091A2
:101140006E00816080936E0010928100809181001A
:101150008260809381008091810081608093810012
:10116000809180008160809380008091B1008460D4
:101170008093B1008091B00081608093B000809135
:101180007A00846080937A0080917A0082608093F4
:101190007A0080917A00816080937A0080917A0051
:1011A000806880937A001092C100E091CC03F091A6
:1011B000CD0382E08083E091C803F091C9031082DF
:1011C000E091CA03F091CB038FEC80831092D4039B
:1011D000E091D003F091D10386E08083E091CE03CB
:1011E000F091CF03808180618083E091CE03F09104
:1011F000CF03808188608083E091CE03F091CF039C
:10120000808180688083E091CE03F091CF0380815C
:101210008F7D80838DE792E00E940005C0E5D2E0DB
:1012200036E5232E32E0332E46E7A42E41E0B42EDD
:1012300057E7852E51E0952E60E4462E68E7562E3E
:101240006DE7662E7724739470ECC72E7CEFD72E53
:101250007BE9E72EFF24F39409911991109235034D
:1012600010923403109299031092BB0310929703CB
:1012700081E0809396031092710382E10E94E40062
:1012800083E10E94E4008091B9008E7F8093B900D1
:101290008091B9008D7F8093B90098E49093B80055
:1012A000E5E4E093BC00B0923303A0923203909245
:1012B00031038092300340E860E0C8010E94C4021C
:1012C0006AE070E080E090E00E94920240E050E02E
:1012D0006AE774E4C8010E940E05F8014382548253
:1012E00065827682FE01329780819181FC01C38202
:1012F000D482E582F68240E050E068E472E40E9425
:101300000E052C163D0609F0A7CF83E892E00E9457
:10131000000520E0822E20E0922E85E694E00E94D7
:10132000EA03D82F80936B0381E894E00E94EA03DC
:10133000C82F80936C038DE994E00E94EA038093A8
:101340006D03DD2309F4D7C0D0936A03C111D5C062
:1013500080E2A82E82E0B82E9AE3C92E93E0D92E1F
:10136000A601950190E080E0FA01E80FF91FD9018C
:10137000A80FB91F6C916083019688309105A1F781
:10138000285F3F4F485F5F4F80E592E082179307E9
:1013900049F78FB7F8944090360350903703609028
:1013A0003803709039038FBF83E992E00E940005F3
:1013B00080916A03833009F4C4C008F0B1C0813061
:1013C00009F4B7C0823009F4B9C0D0E0C0E08601AA
:1013D0007501312CF7018081F8019081891701F1A5
:1013E0008130F1F468EC70E080E090E00E949202BD
:1013F000C330D10509F4C1C00CF0ACC0C130D10577
:1014000009F4B6C048E750E0632DC230D10509F4B5
:10141000B8C048E750E0632D87EC94E00E94F302E7
:10142000F7018081F8019081891701F18230F1F490
:1014300068EC70E080E090E00E949202C330D10539
:1014400009F4B9C00CF0A4C0C130D10509F4AEC094
:1014500048EB51E0632DC230D10509F4B0C048EB30
:1014600051E0632D87EC94E00E94F302FFEFEF1A46
:10147000FF0A0F5F1F4F339488E03812ABCF2196DD
:1014800098E0A90EB11CE8E0CE0ED11CC630D10503
:1014900009F09DCF10926A032FB7F894609136033C
:1014A0007091370380913803909139032FBF6419ED
:1014B0007509860997090E94750C20E030E04AE71B
:1014C00054E40E94D40B6B017C0182EA92E00E94FA
:1014D000AF04A7019601C701B6010E94990D8823A8
:1014E00009F474C080EB92E00E94AF048CEB92E0B0
:1014F0000E94000509C0CC2319F0C85FC0936A039D
:1015000080916A03811124CF8114910409F405CFDD
:101510000E94B501882309F400CF0E940000FDCE8F
:101520008530A9F088F0863009F04FCF80E391E054
:1015300002C080E091E00E942B0147CF80EF91E054
:10154000FACF80EC91E0F7CF80E991E0F4CF80E62C
:1015500091E0F1CFC430D105B9F048E750E068E040
:10156000630DC530D10509F054CF89EB94E056CF17
:1015700048E750E068E0630D4FCF48E750E068E08F
:10158000630D80EC94E04ACF48E750E0632DEDCF47
:10159000C430D105B9F048EB51E068E0630DC530C7
:1015A000D10509F05CCF89EB94E05ECF48EB51E0C8
:1015B00068E0630D57CF48EB51E068E0630D80ECC5
:1015C00094E052CF48EB51E0632DEDCF2FEF3FEF8A
:1015D0004FE75FE7C701B6010E94990D81110DC069
:1015E0002FEF3FEF4FE75FE7C701B6010E94CF0B38
:1015F00018161CF484EB92E077CF2FEF3FEF4FE704
:101600005FE4C701B6010E94270D18161CF488EB91
:1016100092E06ACF2FEF3FEF4FE75FECC701B601D3
:101620000E94CF0B87FDF3CF2AE037ED43EA5BE35F
:10163000C701B6010E94630B2B013C010E94460CBE
:101640006B017C010E94750C9B01AC01C301B201CE
:101650000E94620B2B013C014AE0C701B6010E94C7
:10166000BC046EE28CEB93E00E94EB0120E030E0E2
:1016700040E251E4C301B2010E942C0D2B013C0158
:101680000E94460C6B01F12CE12C4AE0C701B60127
:101690000E94BC04C701B6010E94750C9B01AC01FD
:1016A000C301B2010E94620B20E030E040E251E44D
:1016B0000E942C0D0E94460C90E080E04AE00E94BF
:1016C000BC0414CF5058BB27AA270E947A0B0C9455
:1016D000ED0C0E94DF0C38F00E94E60C20F039F48B
:1016E0009F3F19F426F40C94DC0C0EF4E095E7FB14
:1016F0000C94D60CE92F0E94FE0C58F3BA1762071F
:1017000073078407950720F079F4A6F50C94200D53
:101710000EF4E0950B2EBA2FA02D0B01B90190010C
:101720000C01CA01A0011124FF27591B99F0593F50
:1017300050F4503E68F11A16F040A22F232F342F98
:101740004427585FF3CF469537952795A795F040E6
:101750005395C9F77EF41F16BA0B620B730B840BFB
:10176000BAF09150A1F0FF0FBB1F661F771F881FB3
:10177000C2F70EC0BA0F621F731F841F48F487950B
:1017800077956795B795F7959E3F08F0B0CF9395FD
:10179000880F08F09927EE0F9795879508950E9476
:1017A000B20C08F481E008950E94E80B0C94ED0C53
:1017B0000E94E60C58F00E94DF0C40F029F45F3FD5
:1017C00029F00C94D60C51110C94210D0C94DC0CC6
:1017D0000E94FE0C68F39923B1F3552391F3951BF6
:1017E000550BBB27AA2762177307840738F09F5F42
:1017F0005F4F220F331F441FAA1FA9F335D00E2EAF
:101800003AF0E0E832D091505040E695001CCAF71B
:101810002BD0FE2F29D0660F771F881FBB1F2617DE
:1018200037074807AB07B0E809F0BB0B802DBF01B5
:10183000FF2793585F4F3AF09E3F510578F00C9484
:10184000D60C0C94210D5F3FE4F3983ED4F38695BB
:1018500077956795B795F7959F5FC9F7880F911DA5
:101860009695879597F90895E1E0660F771F881F91
:10187000BB1F621773078407BA0720F0621B730B44
:10188000840BBA0BEE1F88F7E09508950E94060DB1
:1018900088F09F5798F0B92F9927B751B0F0E1F031
:1018A000660F771F881F991F1AF0BA95C9F714C0E1
:1018B000B13091F00E94200DB1E008950C94200DFC
:1018C000672F782F8827B85F39F0B93FCCF386951A
:1018D00077956795B395D9F73EF490958095709577
:1018E00061957F4F8F4F9F4F0895E89409C097FBF4
:1018F0003EF490958095709561957F4F8F4F9F4FE7
:101900009923A9F0F92F96E9BB279395F69587952A
:1019100077956795B795F111F8CFFAF4BB0F11F4ED
:1019200060FF1BC06F5F7F4F8F4F9F4F16C0882394
:1019300011F096E911C0772321F09EE8872F762FCA
:1019400005C0662371F096E8862F70E060E02AF00B
:101950009A95660F771F881FDAF7880F96958795F7
:1019600097F90895990F0008550FAA0BE0E8FEEFCC
:1019700016161706E807F907C0F012161306E40753
:10198000F50798F0621B730B840B950B39F40A264C
:1019900061F0232B242B252B21F408950A2609F42A
:1019A000A140A6958FEF811D811D089597F99F672E
:1019B00080E870E060E008959FEF80EC08950024D7
:1019C0000A941616170618060906089500240A94A4
:1019D00012161306140605060895092E0394000C2A
:1019E00011F4882352F0BB0F40F4BF2B11F460FFB9
:1019F00004C06F5F7F4F8F4F9F4F089557FD9058E2
:101A0000440F551F59F05F3F71F04795880F97FBC2
:101A1000991F61F09F3F79F087950895121613067C
:101A20001406551FF2CF4695F1DF08C016161706AB
:101A30001806991FF1CF86957105610508940895E0
:101A4000E894BB2766277727CB0197F908950E9472
:101A5000B20C08F48FEF08950E943F0D0C94ED0C2A
:101A60000E94DF0C38F00E94E60C20F0952311F064
:101A70000C94D60C0C94DC0C11240C94210D0E94B7
:101A8000FE0C70F3959FC1F3950F50E0551F629FB8
:101A9000F001729FBB27F00DB11D639FAA27F00DC7
:101AA000B11DAA1F649F6627B00DA11D661F829FEE
:101AB0002227B00DA11D621F739FB00DA11D621FD3
:101AC000839FA00D611D221F749F3327A00D611DF0
:101AD000231F849F600D211D822F762F6A2F1124D2
:101AE0009F5750409AF0F1F088234AF0EE0FFF1F05
:101AF000BB1F661F771F881F91505040A9F79E3F5C
:101B0000510580F00C94D60C0C94210D5F3FE4F34A
:101B1000983ED4F3869577956795B795F795E795B1
:101B20009F5FC1F7FE2B880F911D9695879597F9BA
:101B300008950E94B20C880B990B0895A1E21A2E09
:101B4000AA1BBB1BFD010DC0AA1FBB1FEE1FFF1F61
:101B5000A217B307E407F50720F0A21BB30BE40BB1
:101B6000F50B661F771F881F991F1A9469F76095F8
:101B70007095809590959B01AC01BD01CF010895B2
:101B8000EE0FFF1F0590F491E02D0994F894FFCF1C
:101B90000202020202020202020202020202020225
:101BA0000202020202020202020202020202020215
:101BB0000202020202020202020202020202020205
:101BC0000101010000000000000000000000000012
:101BD0000000000000000000000000000000000005
:101BE00000000000000000000000000000000000F5
:101BF00002020200000000000000000000000000DF
:101C000000000000000000000000000000000000D4
:101C100000000000000000000000000000000000C4
:101C200000000000000000000202020202020202A4
:101C300000000000000000000000000000000000A4
:101C40000000000000000000020202020202020284
:101C50000000000000000000000000000000000084
:101C60000202020202020202000000000000000064
:101C70000201020102010201000000000000000058
:101C80000101010101010101010101010101010144
:101C90000101010101010101010101010101010134
:101CA0000101010101010101010101010101010124
:101CB0000101010101010101010101010101010114
:101CC0000101010101010101010101010101010104
:101CD00001010101010101010101010101010101F4
:101CE000C704C004B90400000000EB0149017801F9
:101CF0003802A90187019B0100000000B8038B0393
:101D0000E70361038403710362030D0A00537461E6
:101D100072740053797374656D2052656164792023
:101D20000A0A005570646174696E672041727261BD
:101D30007900436F6D706C6574656420696E200076
:101D40006E616E00696E66006F7666002073656373
:081D50006F6E6473200A0A00A3
:00000001FF
